{
	"contracts/Main.sol": {
		"TODOS": {
			"abi": [
				{
					"inputs": [],
					"name": "getTask",
					"outputs": [
						{
							"components": [
								{
									"internalType": "string",
									"name": "name",
									"type": "string"
								},
								{
									"internalType": "bool",
									"name": "isCompleted",
									"type": "bool"
								}
							],
							"internalType": "struct TODOS.task[]",
							"name": "",
							"type": "tuple[]"
						}
					],
					"stateMutability": "view",
					"type": "function"
				},
				{
					"inputs": [
						{
							"internalType": "string",
							"name": "_str",
							"type": "string"
						}
					],
					"name": "setTask",
					"outputs": [],
					"stateMutability": "nonpayable",
					"type": "function"
				},
				{
					"inputs": [
						{
							"internalType": "uint256",
							"name": "",
							"type": "uint256"
						}
					],
					"name": "tasks",
					"outputs": [
						{
							"internalType": "string",
							"name": "name",
							"type": "string"
						},
						{
							"internalType": "bool",
							"name": "isCompleted",
							"type": "bool"
						}
					],
					"stateMutability": "view",
					"type": "function"
				}
			],
			"devdoc": {
				"kind": "dev",
				"methods": {},
				"version": 1
			},
			"evm": {
				"assembly": "    /* \"contracts/Main.sol\":60:577  contract TODOS {\r... */\n  mstore(0x40, 0x80)\n  callvalue\n  dup1\n  iszero\n  tag_1\n  jumpi\n  0x00\n  dup1\n  revert\ntag_1:\n  pop\n  dataSize(sub_0)\n  dup1\n  dataOffset(sub_0)\n  0x00\n  codecopy\n  0x00\n  return\nstop\n\nsub_0: assembly {\n        /* \"contracts/Main.sol\":60:577  contract TODOS {\r... */\n      mstore(0x40, 0x80)\n      callvalue\n      dup1\n      iszero\n      tag_1\n      jumpi\n      0x00\n      dup1\n      revert\n    tag_1:\n      pop\n      jumpi(tag_2, lt(calldatasize, 0x04))\n      shr(0xe0, calldataload(0x00))\n      dup1\n      0x69306b3a\n      eq\n      tag_3\n      jumpi\n      dup1\n      0x8d977672\n      eq\n      tag_4\n      jumpi\n      dup1\n      0xa31662d2\n      eq\n      tag_5\n      jumpi\n    tag_2:\n      0x00\n      dup1\n      revert\n        /* \"contracts/Main.sol\":285:463  function setTask(string memory _str) public{\r... */\n    tag_3:\n      tag_6\n      0x04\n      dup1\n      calldatasize\n      sub\n      dup2\n      add\n      swap1\n      tag_7\n      swap2\n      swap1\n      tag_8\n      jump\t// in\n    tag_7:\n      tag_9\n      jump\t// in\n    tag_6:\n      stop\n        /* \"contracts/Main.sol\":156:175  task[] public tasks */\n    tag_4:\n      tag_10\n      0x04\n      dup1\n      calldatasize\n      sub\n      dup2\n      add\n      swap1\n      tag_11\n      swap2\n      swap1\n      tag_12\n      jump\t// in\n    tag_11:\n      tag_13\n      jump\t// in\n    tag_10:\n      mload(0x40)\n      tag_14\n      swap3\n      swap2\n      swap1\n      tag_15\n      jump\t// in\n    tag_14:\n      mload(0x40)\n      dup1\n      swap2\n      sub\n      swap1\n      return\n        /* \"contracts/Main.sol\":471:574  function getTask()view public returns(task[] memory){\r... */\n    tag_5:\n      tag_16\n      tag_17\n      jump\t// in\n    tag_16:\n      mload(0x40)\n      tag_18\n      swap2\n      swap1\n      tag_19\n      jump\t// in\n    tag_18:\n      mload(0x40)\n      dup1\n      swap2\n      sub\n      swap1\n      return\n        /* \"contracts/Main.sol\":285:463  function setTask(string memory _str) public{\r... */\n    tag_9:\n        /* \"contracts/Main.sol\":347:360  taskToAccount */\n      0x01\n        /* \"contracts/Main.sol\":347:372  taskToAccount[msg.sender] */\n      0x00\n        /* \"contracts/Main.sol\":361:371  msg.sender */\n      caller\n        /* \"contracts/Main.sol\":347:372  taskToAccount[msg.sender] */\n      0xffffffffffffffffffffffffffffffffffffffff\n      and\n      0xffffffffffffffffffffffffffffffffffffffff\n      and\n      dup2\n      mstore\n      0x20\n      add\n      swap1\n      dup2\n      mstore\n      0x20\n      add\n      0x00\n      keccak256\n        /* \"contracts/Main.sol\":339:344  tasks */\n      0x00\n        /* \"contracts/Main.sol\":339:372  tasks = taskToAccount[msg.sender] */\n      swap1\n      dup1\n      sload\n      tag_21\n      swap3\n      swap2\n      swap1\n      tag_22\n      jump\t// in\n    tag_21:\n      pop\n        /* \"contracts/Main.sol\":382:387  tasks */\n      0x00\n        /* \"contracts/Main.sol\":393:409  task(_str,false) */\n      mload(0x40)\n      dup1\n      0x40\n      add\n      0x40\n      mstore\n      dup1\n        /* \"contracts/Main.sol\":398:402  _str */\n      dup4\n        /* \"contracts/Main.sol\":393:409  task(_str,false) */\n      dup2\n      mstore\n      0x20\n      add\n        /* \"contracts/Main.sol\":403:408  false */\n      0x00\n        /* \"contracts/Main.sol\":393:409  task(_str,false) */\n      iszero\n      iszero\n      dup2\n      mstore\n      pop\n        /* \"contracts/Main.sol\":382:410  tasks.push(task(_str,false)) */\n      swap1\n      dup1\n      0x01\n      dup2\n      sload\n      add\n      dup1\n      dup3\n      sstore\n      dup1\n      swap2\n      pop\n      pop\n      0x01\n      swap1\n      sub\n      swap1\n      0x00\n      mstore\n      keccak256(0x00, 0x20)\n      swap1\n      0x02\n      mul\n      add\n      0x00\n      swap1\n      swap2\n      swap1\n      swap2\n      swap1\n      swap2\n      pop\n      0x00\n      dup3\n      add\n      mload\n      dup2\n      0x00\n      add\n      swap1\n      dup1\n      mload\n      swap1\n      0x20\n      add\n      swap1\n      tag_24\n      swap3\n      swap2\n      swap1\n      tag_25\n      jump\t// in\n    tag_24:\n      pop\n      0x20\n      dup3\n      add\n      mload\n      dup2\n      0x01\n      add\n      exp(0x0100, 0x00)\n      dup2\n      sload\n      dup2\n      0xff\n      mul\n      not\n      and\n      swap1\n      dup4\n      iszero\n      iszero\n      mul\n      or\n      swap1\n      sstore\n      pop\n      pop\n      pop\n        /* \"contracts/Main.sol\":448:453  tasks */\n      0x00\n        /* \"contracts/Main.sol\":420:433  taskToAccount */\n      0x01\n        /* \"contracts/Main.sol\":420:445  taskToAccount[msg.sender] */\n      0x00\n        /* \"contracts/Main.sol\":434:444  msg.sender */\n      caller\n        /* \"contracts/Main.sol\":420:445  taskToAccount[msg.sender] */\n      0xffffffffffffffffffffffffffffffffffffffff\n      and\n      0xffffffffffffffffffffffffffffffffffffffff\n      and\n      dup2\n      mstore\n      0x20\n      add\n      swap1\n      dup2\n      mstore\n      0x20\n      add\n      0x00\n      keccak256\n        /* \"contracts/Main.sol\":420:453  taskToAccount[msg.sender] = tasks */\n      swap1\n      dup1\n      sload\n      tag_26\n      swap3\n      swap2\n      swap1\n      tag_22\n      jump\t// in\n    tag_26:\n      pop\n        /* \"contracts/Main.sol\":285:463  function setTask(string memory _str) public{\r... */\n      pop\n      jump\t// out\n        /* \"contracts/Main.sol\":156:175  task[] public tasks */\n    tag_13:\n      0x00\n      dup2\n      dup2\n      sload\n      dup2\n      lt\n      tag_27\n      jumpi\n      0x00\n      dup1\n      revert\n    tag_27:\n      swap1\n      0x00\n      mstore\n      keccak256(0x00, 0x20)\n      swap1\n      0x02\n      mul\n      add\n      0x00\n      swap2\n      pop\n      swap1\n      pop\n      dup1\n      0x00\n      add\n      dup1\n      sload\n      tag_29\n      swap1\n      tag_30\n      jump\t// in\n    tag_29:\n      dup1\n      0x1f\n      add\n      0x20\n      dup1\n      swap2\n      div\n      mul\n      0x20\n      add\n      mload(0x40)\n      swap1\n      dup2\n      add\n      0x40\n      mstore\n      dup1\n      swap3\n      swap2\n      swap1\n      dup2\n      dup2\n      mstore\n      0x20\n      add\n      dup3\n      dup1\n      sload\n      tag_31\n      swap1\n      tag_30\n      jump\t// in\n    tag_31:\n      dup1\n      iszero\n      tag_32\n      jumpi\n      dup1\n      0x1f\n      lt\n      tag_33\n      jumpi\n      0x0100\n      dup1\n      dup4\n      sload\n      div\n      mul\n      dup4\n      mstore\n      swap2\n      0x20\n      add\n      swap2\n      jump(tag_32)\n    tag_33:\n      dup3\n      add\n      swap2\n      swap1\n      0x00\n      mstore\n      keccak256(0x00, 0x20)\n      swap1\n    tag_34:\n      dup2\n      sload\n      dup2\n      mstore\n      swap1\n      0x01\n      add\n      swap1\n      0x20\n      add\n      dup1\n      dup4\n      gt\n      tag_34\n      jumpi\n      dup3\n      swap1\n      sub\n      0x1f\n      and\n      dup3\n      add\n      swap2\n    tag_32:\n      pop\n      pop\n      pop\n      pop\n      pop\n      swap1\n      dup1\n      0x01\n      add\n      0x00\n      swap1\n      sload\n      swap1\n      0x0100\n      exp\n      swap1\n      div\n      0xff\n      and\n      swap1\n      pop\n      dup3\n      jump\t// out\n        /* \"contracts/Main.sol\":471:574  function getTask()view public returns(task[] memory){\r... */\n    tag_17:\n        /* \"contracts/Main.sol\":509:522  task[] memory */\n      0x60\n        /* \"contracts/Main.sol\":541:554  taskToAccount */\n      0x01\n        /* \"contracts/Main.sol\":541:566  taskToAccount[msg.sender] */\n      0x00\n        /* \"contracts/Main.sol\":555:565  msg.sender */\n      caller\n        /* \"contracts/Main.sol\":541:566  taskToAccount[msg.sender] */\n      0xffffffffffffffffffffffffffffffffffffffff\n      and\n      0xffffffffffffffffffffffffffffffffffffffff\n      and\n      dup2\n      mstore\n      0x20\n      add\n      swap1\n      dup2\n      mstore\n      0x20\n      add\n      0x00\n      keccak256\n        /* \"contracts/Main.sol\":534:566  return taskToAccount[msg.sender] */\n      dup1\n      sload\n      dup1\n      0x20\n      mul\n      0x20\n      add\n      mload(0x40)\n      swap1\n      dup2\n      add\n      0x40\n      mstore\n      dup1\n      swap3\n      swap2\n      swap1\n      dup2\n      dup2\n      mstore\n      0x20\n      add\n      0x00\n      swap1\n    tag_36:\n      dup3\n      dup3\n      lt\n      iszero\n      tag_37\n      jumpi\n      dup4\n      dup3\n      swap1\n      0x00\n      mstore\n      keccak256(0x00, 0x20)\n      swap1\n      0x02\n      mul\n      add\n      mload(0x40)\n      dup1\n      0x40\n      add\n      0x40\n      mstore\n      swap1\n      dup2\n      0x00\n      dup3\n      add\n      dup1\n      sload\n      tag_39\n      swap1\n      tag_30\n      jump\t// in\n    tag_39:\n      dup1\n      0x1f\n      add\n      0x20\n      dup1\n      swap2\n      div\n      mul\n      0x20\n      add\n      mload(0x40)\n      swap1\n      dup2\n      add\n      0x40\n      mstore\n      dup1\n      swap3\n      swap2\n      swap1\n      dup2\n      dup2\n      mstore\n      0x20\n      add\n      dup3\n      dup1\n      sload\n      tag_40\n      swap1\n      tag_30\n      jump\t// in\n    tag_40:\n      dup1\n      iszero\n      tag_41\n      jumpi\n      dup1\n      0x1f\n      lt\n      tag_42\n      jumpi\n      0x0100\n      dup1\n      dup4\n      sload\n      div\n      mul\n      dup4\n      mstore\n      swap2\n      0x20\n      add\n      swap2\n      jump(tag_41)\n    tag_42:\n      dup3\n      add\n      swap2\n      swap1\n      0x00\n      mstore\n      keccak256(0x00, 0x20)\n      swap1\n    tag_43:\n      dup2\n      sload\n      dup2\n      mstore\n      swap1\n      0x01\n      add\n      swap1\n      0x20\n      add\n      dup1\n      dup4\n      gt\n      tag_43\n      jumpi\n      dup3\n      swap1\n      sub\n      0x1f\n      and\n      dup3\n      add\n      swap2\n    tag_41:\n      pop\n      pop\n      pop\n      pop\n      pop\n      dup2\n      mstore\n      0x20\n      add\n      0x01\n      dup3\n      add\n      0x00\n      swap1\n      sload\n      swap1\n      0x0100\n      exp\n      swap1\n      div\n      0xff\n      and\n      iszero\n      iszero\n      iszero\n      iszero\n      dup2\n      mstore\n      pop\n      pop\n      dup2\n      mstore\n      0x20\n      add\n      swap1\n      0x01\n      add\n      swap1\n      jump(tag_36)\n    tag_37:\n      pop\n      pop\n      pop\n      pop\n      swap1\n      pop\n        /* \"contracts/Main.sol\":471:574  function getTask()view public returns(task[] memory){\r... */\n      swap1\n      jump\t// out\n    tag_22:\n      dup3\n      dup1\n      sload\n      dup3\n      dup3\n      sstore\n      swap1\n      0x00\n      mstore\n      keccak256(0x00, 0x20)\n      swap1\n      0x02\n      mul\n      dup2\n      add\n      swap3\n      dup3\n      iszero\n      tag_44\n      jumpi\n      0x00\n      mstore\n      keccak256(0x00, 0x20)\n      swap2\n      0x02\n      mul\n      dup3\n      add\n    tag_45:\n      dup3\n      dup2\n      gt\n      iszero\n      tag_46\n      jumpi\n      dup3\n      dup3\n      0x00\n      dup3\n      add\n      dup2\n      0x00\n      add\n      swap1\n      dup1\n      sload\n      tag_47\n      swap1\n      tag_30\n      jump\t// in\n    tag_47:\n      tag_48\n      swap3\n      swap2\n      swap1\n      tag_49\n      jump\t// in\n    tag_48:\n      pop\n      0x01\n      dup3\n      add\n      0x00\n      swap1\n      sload\n      swap1\n      0x0100\n      exp\n      swap1\n      div\n      0xff\n      and\n      dup2\n      0x01\n      add\n      exp(0x0100, 0x00)\n      dup2\n      sload\n      dup2\n      0xff\n      mul\n      not\n      and\n      swap1\n      dup4\n      iszero\n      iszero\n      mul\n      or\n      swap1\n      sstore\n      pop\n      pop\n      pop\n      swap2\n      0x02\n      add\n      swap2\n      swap1\n      0x02\n      add\n      swap1\n      jump(tag_45)\n    tag_46:\n    tag_44:\n      pop\n      swap1\n      pop\n      tag_50\n      swap2\n      swap1\n      tag_51\n      jump\t// in\n    tag_50:\n      pop\n      swap1\n      jump\t// out\n    tag_25:\n      dup3\n      dup1\n      sload\n      tag_52\n      swap1\n      tag_30\n      jump\t// in\n    tag_52:\n      swap1\n      0x00\n      mstore\n      keccak256(0x00, 0x20)\n      swap1\n      0x1f\n      add\n      0x20\n      swap1\n      div\n      dup2\n      add\n      swap3\n      dup3\n      tag_54\n      jumpi\n      0x00\n      dup6\n      sstore\n      jump(tag_53)\n    tag_54:\n      dup3\n      0x1f\n      lt\n      tag_55\n      jumpi\n      dup1\n      mload\n      not(0xff)\n      and\n      dup4\n      dup1\n      add\n      or\n      dup6\n      sstore\n      jump(tag_53)\n    tag_55:\n      dup3\n      dup1\n      add\n      0x01\n      add\n      dup6\n      sstore\n      dup3\n      iszero\n      tag_53\n      jumpi\n      swap2\n      dup3\n      add\n    tag_56:\n      dup3\n      dup2\n      gt\n      iszero\n      tag_57\n      jumpi\n      dup3\n      mload\n      dup3\n      sstore\n      swap2\n      0x20\n      add\n      swap2\n      swap1\n      0x01\n      add\n      swap1\n      jump(tag_56)\n    tag_57:\n    tag_53:\n      pop\n      swap1\n      pop\n      tag_58\n      swap2\n      swap1\n      tag_59\n      jump\t// in\n    tag_58:\n      pop\n      swap1\n      jump\t// out\n    tag_49:\n      dup3\n      dup1\n      sload\n      tag_60\n      swap1\n      tag_30\n      jump\t// in\n    tag_60:\n      swap1\n      0x00\n      mstore\n      keccak256(0x00, 0x20)\n      swap1\n      0x1f\n      add\n      0x20\n      swap1\n      div\n      dup2\n      add\n      swap3\n      dup3\n      tag_62\n      jumpi\n      0x00\n      dup6\n      sstore\n      jump(tag_61)\n    tag_62:\n      dup3\n      0x1f\n      lt\n      tag_63\n      jumpi\n      dup1\n      sload\n      dup6\n      sstore\n      jump(tag_61)\n    tag_63:\n      dup3\n      dup1\n      add\n      0x01\n      add\n      dup6\n      sstore\n      dup3\n      iszero\n      tag_61\n      jumpi\n      0x00\n      mstore\n      keccak256(0x00, 0x20)\n      swap2\n      0x1f\n      add\n      0x20\n      swap1\n      div\n      dup3\n      add\n    tag_64:\n      dup3\n      dup2\n      gt\n      iszero\n      tag_65\n      jumpi\n      dup3\n      sload\n      dup3\n      sstore\n      swap2\n      0x01\n      add\n      swap2\n      swap1\n      0x01\n      add\n      swap1\n      jump(tag_64)\n    tag_65:\n    tag_61:\n      pop\n      swap1\n      pop\n      tag_66\n      swap2\n      swap1\n      tag_59\n      jump\t// in\n    tag_66:\n      pop\n      swap1\n      jump\t// out\n    tag_51:\n    tag_67:\n      dup1\n      dup3\n      gt\n      iszero\n      tag_68\n      jumpi\n      0x00\n      dup1\n      dup3\n      add\n      0x00\n      tag_69\n      swap2\n      swap1\n      tag_70\n      jump\t// in\n    tag_69:\n      0x01\n      dup3\n      add\n      exp(0x0100, 0x00)\n      dup2\n      sload\n      swap1\n      0xff\n      mul\n      not\n      and\n      swap1\n      sstore\n      pop\n      0x02\n      add\n      jump(tag_67)\n    tag_68:\n      pop\n      swap1\n      jump\t// out\n    tag_59:\n    tag_71:\n      dup1\n      dup3\n      gt\n      iszero\n      tag_72\n      jumpi\n      0x00\n      dup2\n      0x00\n      swap1\n      sstore\n      pop\n      0x01\n      add\n      jump(tag_71)\n    tag_72:\n      pop\n      swap1\n      jump\t// out\n    tag_70:\n      pop\n      dup1\n      sload\n      tag_73\n      swap1\n      tag_30\n      jump\t// in\n    tag_73:\n      0x00\n      dup3\n      sstore\n      dup1\n      0x1f\n      lt\n      tag_75\n      jumpi\n      pop\n      jump(tag_74)\n    tag_75:\n      0x1f\n      add\n      0x20\n      swap1\n      div\n      swap1\n      0x00\n      mstore\n      keccak256(0x00, 0x20)\n      swap1\n      dup2\n      add\n      swap1\n      tag_76\n      swap2\n      swap1\n      tag_59\n      jump\t// in\n    tag_76:\n    tag_74:\n      pop\n      jump\t// out\n        /* \"#utility.yul\":7:419   */\n    tag_78:\n        /* \"#utility.yul\":85:90   */\n      0x00\n        /* \"#utility.yul\":110:176   */\n      tag_80\n        /* \"#utility.yul\":126:175   */\n      tag_81\n        /* \"#utility.yul\":168:174   */\n      dup5\n        /* \"#utility.yul\":126:175   */\n      tag_82\n      jump\t// in\n    tag_81:\n        /* \"#utility.yul\":110:176   */\n      tag_83\n      jump\t// in\n    tag_80:\n        /* \"#utility.yul\":101:176   */\n      swap1\n      pop\n        /* \"#utility.yul\":199:205   */\n      dup3\n        /* \"#utility.yul\":192:197   */\n      dup2\n        /* \"#utility.yul\":185:206   */\n      mstore\n        /* \"#utility.yul\":237:241   */\n      0x20\n        /* \"#utility.yul\":230:235   */\n      dup2\n        /* \"#utility.yul\":226:242   */\n      add\n        /* \"#utility.yul\":275:278   */\n      dup5\n        /* \"#utility.yul\":266:272   */\n      dup5\n        /* \"#utility.yul\":261:264   */\n      dup5\n        /* \"#utility.yul\":257:273   */\n      add\n        /* \"#utility.yul\":254:279   */\n      gt\n        /* \"#utility.yul\":251:363   */\n      iszero\n      tag_84\n      jumpi\n        /* \"#utility.yul\":282:361   */\n      tag_85\n      tag_86\n      jump\t// in\n    tag_85:\n        /* \"#utility.yul\":251:363   */\n    tag_84:\n        /* \"#utility.yul\":372:413   */\n      tag_87\n        /* \"#utility.yul\":406:412   */\n      dup5\n        /* \"#utility.yul\":401:404   */\n      dup3\n        /* \"#utility.yul\":396:399   */\n      dup6\n        /* \"#utility.yul\":372:413   */\n      tag_88\n      jump\t// in\n    tag_87:\n        /* \"#utility.yul\":91:419   */\n      pop\n        /* \"#utility.yul\":7:419   */\n      swap4\n      swap3\n      pop\n      pop\n      pop\n      jump\t// out\n        /* \"#utility.yul\":439:779   */\n    tag_89:\n        /* \"#utility.yul\":495:500   */\n      0x00\n        /* \"#utility.yul\":544:547   */\n      dup3\n        /* \"#utility.yul\":537:541   */\n      0x1f\n        /* \"#utility.yul\":529:535   */\n      dup4\n        /* \"#utility.yul\":525:542   */\n      add\n        /* \"#utility.yul\":521:548   */\n      slt\n        /* \"#utility.yul\":511:633   */\n      tag_91\n      jumpi\n        /* \"#utility.yul\":552:631   */\n      tag_92\n      tag_93\n      jump\t// in\n    tag_92:\n        /* \"#utility.yul\":511:633   */\n    tag_91:\n        /* \"#utility.yul\":669:675   */\n      dup2\n        /* \"#utility.yul\":656:676   */\n      calldataload\n        /* \"#utility.yul\":694:773   */\n      tag_94\n        /* \"#utility.yul\":769:772   */\n      dup5\n        /* \"#utility.yul\":761:767   */\n      dup3\n        /* \"#utility.yul\":754:758   */\n      0x20\n        /* \"#utility.yul\":746:752   */\n      dup7\n        /* \"#utility.yul\":742:759   */\n      add\n        /* \"#utility.yul\":694:773   */\n      tag_78\n      jump\t// in\n    tag_94:\n        /* \"#utility.yul\":685:773   */\n      swap2\n      pop\n        /* \"#utility.yul\":501:779   */\n      pop\n        /* \"#utility.yul\":439:779   */\n      swap3\n      swap2\n      pop\n      pop\n      jump\t// out\n        /* \"#utility.yul\":785:924   */\n    tag_95:\n        /* \"#utility.yul\":831:836   */\n      0x00\n        /* \"#utility.yul\":869:875   */\n      dup2\n        /* \"#utility.yul\":856:876   */\n      calldataload\n        /* \"#utility.yul\":847:876   */\n      swap1\n      pop\n        /* \"#utility.yul\":885:918   */\n      tag_97\n        /* \"#utility.yul\":912:917   */\n      dup2\n        /* \"#utility.yul\":885:918   */\n      tag_98\n      jump\t// in\n    tag_97:\n        /* \"#utility.yul\":785:924   */\n      swap3\n      swap2\n      pop\n      pop\n      jump\t// out\n        /* \"#utility.yul\":930:1439   */\n    tag_8:\n        /* \"#utility.yul\":999:1005   */\n      0x00\n        /* \"#utility.yul\":1048:1050   */\n      0x20\n        /* \"#utility.yul\":1036:1045   */\n      dup3\n        /* \"#utility.yul\":1027:1034   */\n      dup5\n        /* \"#utility.yul\":1023:1046   */\n      sub\n        /* \"#utility.yul\":1019:1051   */\n      slt\n        /* \"#utility.yul\":1016:1135   */\n      iszero\n      tag_100\n      jumpi\n        /* \"#utility.yul\":1054:1133   */\n      tag_101\n      tag_102\n      jump\t// in\n    tag_101:\n        /* \"#utility.yul\":1016:1135   */\n    tag_100:\n        /* \"#utility.yul\":1202:1203   */\n      0x00\n        /* \"#utility.yul\":1191:1200   */\n      dup3\n        /* \"#utility.yul\":1187:1204   */\n      add\n        /* \"#utility.yul\":1174:1205   */\n      calldataload\n        /* \"#utility.yul\":1232:1250   */\n      0xffffffffffffffff\n        /* \"#utility.yul\":1224:1230   */\n      dup2\n        /* \"#utility.yul\":1221:1251   */\n      gt\n        /* \"#utility.yul\":1218:1335   */\n      iszero\n      tag_103\n      jumpi\n        /* \"#utility.yul\":1254:1333   */\n      tag_104\n      tag_105\n      jump\t// in\n    tag_104:\n        /* \"#utility.yul\":1218:1335   */\n    tag_103:\n        /* \"#utility.yul\":1359:1422   */\n      tag_106\n        /* \"#utility.yul\":1414:1421   */\n      dup5\n        /* \"#utility.yul\":1405:1411   */\n      dup3\n        /* \"#utility.yul\":1394:1403   */\n      dup6\n        /* \"#utility.yul\":1390:1412   */\n      add\n        /* \"#utility.yul\":1359:1422   */\n      tag_89\n      jump\t// in\n    tag_106:\n        /* \"#utility.yul\":1349:1422   */\n      swap2\n      pop\n        /* \"#utility.yul\":1145:1432   */\n      pop\n        /* \"#utility.yul\":930:1439   */\n      swap3\n      swap2\n      pop\n      pop\n      jump\t// out\n        /* \"#utility.yul\":1445:1774   */\n    tag_12:\n        /* \"#utility.yul\":1504:1510   */\n      0x00\n        /* \"#utility.yul\":1553:1555   */\n      0x20\n        /* \"#utility.yul\":1541:1550   */\n      dup3\n        /* \"#utility.yul\":1532:1539   */\n      dup5\n        /* \"#utility.yul\":1528:1551   */\n      sub\n        /* \"#utility.yul\":1524:1556   */\n      slt\n        /* \"#utility.yul\":1521:1640   */\n      iszero\n      tag_108\n      jumpi\n        /* \"#utility.yul\":1559:1638   */\n      tag_109\n      tag_102\n      jump\t// in\n    tag_109:\n        /* \"#utility.yul\":1521:1640   */\n    tag_108:\n        /* \"#utility.yul\":1679:1680   */\n      0x00\n        /* \"#utility.yul\":1704:1757   */\n      tag_110\n        /* \"#utility.yul\":1749:1756   */\n      dup5\n        /* \"#utility.yul\":1740:1746   */\n      dup3\n        /* \"#utility.yul\":1729:1738   */\n      dup6\n        /* \"#utility.yul\":1725:1747   */\n      add\n        /* \"#utility.yul\":1704:1757   */\n      tag_95\n      jump\t// in\n    tag_110:\n        /* \"#utility.yul\":1694:1757   */\n      swap2\n      pop\n        /* \"#utility.yul\":1650:1767   */\n      pop\n        /* \"#utility.yul\":1445:1774   */\n      swap3\n      swap2\n      pop\n      pop\n      jump\t// out\n        /* \"#utility.yul\":1780:2012   */\n    tag_111:\n        /* \"#utility.yul\":1887:1897   */\n      0x00\n        /* \"#utility.yul\":1922:2006   */\n      tag_113\n        /* \"#utility.yul\":2002:2005   */\n      dup4\n        /* \"#utility.yul\":1994:2000   */\n      dup4\n        /* \"#utility.yul\":1922:2006   */\n      tag_114\n      jump\t// in\n    tag_113:\n        /* \"#utility.yul\":1908:2006   */\n      swap1\n      pop\n        /* \"#utility.yul\":1780:2012   */\n      swap3\n      swap2\n      pop\n      pop\n      jump\t// out\n        /* \"#utility.yul\":2068:3131   */\n    tag_115:\n        /* \"#utility.yul\":2225:2228   */\n      0x00\n        /* \"#utility.yul\":2254:2327   */\n      tag_117\n        /* \"#utility.yul\":2321:2326   */\n      dup3\n        /* \"#utility.yul\":2254:2327   */\n      tag_118\n      jump\t// in\n    tag_117:\n        /* \"#utility.yul\":2343:2448   */\n      tag_119\n        /* \"#utility.yul\":2441:2447   */\n      dup2\n        /* \"#utility.yul\":2436:2439   */\n      dup6\n        /* \"#utility.yul\":2343:2448   */\n      tag_120\n      jump\t// in\n    tag_119:\n        /* \"#utility.yul\":2336:2448   */\n      swap4\n      pop\n        /* \"#utility.yul\":2474:2477   */\n      dup4\n        /* \"#utility.yul\":2519:2523   */\n      0x20\n        /* \"#utility.yul\":2511:2517   */\n      dup3\n        /* \"#utility.yul\":2507:2524   */\n      mul\n        /* \"#utility.yul\":2502:2505   */\n      dup6\n        /* \"#utility.yul\":2498:2525   */\n      add\n        /* \"#utility.yul\":2549:2624   */\n      tag_121\n        /* \"#utility.yul\":2618:2623   */\n      dup6\n        /* \"#utility.yul\":2549:2624   */\n      tag_122\n      jump\t// in\n    tag_121:\n        /* \"#utility.yul\":2647:2654   */\n      dup1\n        /* \"#utility.yul\":2678:2679   */\n      0x00\n        /* \"#utility.yul\":2663:3086   */\n    tag_123:\n        /* \"#utility.yul\":2688:2694   */\n      dup6\n        /* \"#utility.yul\":2685:2686   */\n      dup2\n        /* \"#utility.yul\":2682:2695   */\n      lt\n        /* \"#utility.yul\":2663:3086   */\n      iszero\n      tag_125\n      jumpi\n        /* \"#utility.yul\":2759:2768   */\n      dup5\n        /* \"#utility.yul\":2753:2757   */\n      dup5\n        /* \"#utility.yul\":2749:2769   */\n      sub\n        /* \"#utility.yul\":2744:2747   */\n      dup10\n        /* \"#utility.yul\":2737:2770   */\n      mstore\n        /* \"#utility.yul\":2810:2816   */\n      dup2\n        /* \"#utility.yul\":2804:2817   */\n      mload\n        /* \"#utility.yul\":2838:2940   */\n      tag_126\n        /* \"#utility.yul\":2935:2939   */\n      dup6\n        /* \"#utility.yul\":2920:2933   */\n      dup3\n        /* \"#utility.yul\":2838:2940   */\n      tag_111\n      jump\t// in\n    tag_126:\n        /* \"#utility.yul\":2830:2940   */\n      swap5\n      pop\n        /* \"#utility.yul\":2963:3042   */\n      tag_127\n        /* \"#utility.yul\":3035:3041   */\n      dup4\n        /* \"#utility.yul\":2963:3042   */\n      tag_128\n      jump\t// in\n    tag_127:\n        /* \"#utility.yul\":2953:3042   */\n      swap3\n      pop\n        /* \"#utility.yul\":3071:3075   */\n      0x20\n        /* \"#utility.yul\":3066:3069   */\n      dup11\n        /* \"#utility.yul\":3062:3076   */\n      add\n        /* \"#utility.yul\":3055:3076   */\n      swap10\n      pop\n        /* \"#utility.yul\":2723:3086   */\n      pop\n        /* \"#utility.yul\":2710:2711   */\n      0x01\n        /* \"#utility.yul\":2707:2708   */\n      dup2\n        /* \"#utility.yul\":2703:2712   */\n      add\n        /* \"#utility.yul\":2698:2712   */\n      swap1\n      pop\n        /* \"#utility.yul\":2663:3086   */\n      jump(tag_123)\n    tag_125:\n        /* \"#utility.yul\":2667:2681   */\n      pop\n        /* \"#utility.yul\":3102:3106   */\n      dup3\n        /* \"#utility.yul\":3095:3106   */\n      swap8\n      pop\n        /* \"#utility.yul\":3122:3125   */\n      dup8\n        /* \"#utility.yul\":3115:3125   */\n      swap6\n      pop\n        /* \"#utility.yul\":2230:3131   */\n      pop\n      pop\n      pop\n      pop\n      pop\n        /* \"#utility.yul\":2068:3131   */\n      swap3\n      swap2\n      pop\n      pop\n      jump\t// out\n        /* \"#utility.yul\":3137:3236   */\n    tag_129:\n        /* \"#utility.yul\":3208:3229   */\n      tag_131\n        /* \"#utility.yul\":3223:3228   */\n      dup2\n        /* \"#utility.yul\":3208:3229   */\n      tag_132\n      jump\t// in\n    tag_131:\n        /* \"#utility.yul\":3203:3206   */\n      dup3\n        /* \"#utility.yul\":3196:3230   */\n      mstore\n        /* \"#utility.yul\":3137:3236   */\n      pop\n      pop\n      jump\t// out\n        /* \"#utility.yul\":3242:3351   */\n    tag_133:\n        /* \"#utility.yul\":3323:3344   */\n      tag_135\n        /* \"#utility.yul\":3338:3343   */\n      dup2\n        /* \"#utility.yul\":3323:3344   */\n      tag_132\n      jump\t// in\n    tag_135:\n        /* \"#utility.yul\":3318:3321   */\n      dup3\n        /* \"#utility.yul\":3311:3345   */\n      mstore\n        /* \"#utility.yul\":3242:3351   */\n      pop\n      pop\n      jump\t// out\n        /* \"#utility.yul\":3357:3701   */\n    tag_136:\n        /* \"#utility.yul\":3435:3438   */\n      0x00\n        /* \"#utility.yul\":3463:3502   */\n      tag_138\n        /* \"#utility.yul\":3496:3501   */\n      dup3\n        /* \"#utility.yul\":3463:3502   */\n      tag_139\n      jump\t// in\n    tag_138:\n        /* \"#utility.yul\":3518:3579   */\n      tag_140\n        /* \"#utility.yul\":3572:3578   */\n      dup2\n        /* \"#utility.yul\":3567:3570   */\n      dup6\n        /* \"#utility.yul\":3518:3579   */\n      tag_141\n      jump\t// in\n    tag_140:\n        /* \"#utility.yul\":3511:3579   */\n      swap4\n      pop\n        /* \"#utility.yul\":3588:3640   */\n      tag_142\n        /* \"#utility.yul\":3633:3639   */\n      dup2\n        /* \"#utility.yul\":3628:3631   */\n      dup6\n        /* \"#utility.yul\":3621:3625   */\n      0x20\n        /* \"#utility.yul\":3614:3619   */\n      dup7\n        /* \"#utility.yul\":3610:3626   */\n      add\n        /* \"#utility.yul\":3588:3640   */\n      tag_143\n      jump\t// in\n    tag_142:\n        /* \"#utility.yul\":3665:3694   */\n      tag_144\n        /* \"#utility.yul\":3687:3693   */\n      dup2\n        /* \"#utility.yul\":3665:3694   */\n      tag_145\n      jump\t// in\n    tag_144:\n        /* \"#utility.yul\":3660:3663   */\n      dup5\n        /* \"#utility.yul\":3656:3695   */\n      add\n        /* \"#utility.yul\":3649:3695   */\n      swap2\n      pop\n        /* \"#utility.yul\":3439:3701   */\n      pop\n        /* \"#utility.yul\":3357:3701   */\n      swap3\n      swap2\n      pop\n      pop\n      jump\t// out\n        /* \"#utility.yul\":3707:4071   */\n    tag_146:\n        /* \"#utility.yul\":3795:3798   */\n      0x00\n        /* \"#utility.yul\":3823:3862   */\n      tag_148\n        /* \"#utility.yul\":3856:3861   */\n      dup3\n        /* \"#utility.yul\":3823:3862   */\n      tag_139\n      jump\t// in\n    tag_148:\n        /* \"#utility.yul\":3878:3949   */\n      tag_149\n        /* \"#utility.yul\":3942:3948   */\n      dup2\n        /* \"#utility.yul\":3937:3940   */\n      dup6\n        /* \"#utility.yul\":3878:3949   */\n      tag_150\n      jump\t// in\n    tag_149:\n        /* \"#utility.yul\":3871:3949   */\n      swap4\n      pop\n        /* \"#utility.yul\":3958:4010   */\n      tag_151\n        /* \"#utility.yul\":4003:4009   */\n      dup2\n        /* \"#utility.yul\":3998:4001   */\n      dup6\n        /* \"#utility.yul\":3991:3995   */\n      0x20\n        /* \"#utility.yul\":3984:3989   */\n      dup7\n        /* \"#utility.yul\":3980:3996   */\n      add\n        /* \"#utility.yul\":3958:4010   */\n      tag_143\n      jump\t// in\n    tag_151:\n        /* \"#utility.yul\":4035:4064   */\n      tag_152\n        /* \"#utility.yul\":4057:4063   */\n      dup2\n        /* \"#utility.yul\":4035:4064   */\n      tag_145\n      jump\t// in\n    tag_152:\n        /* \"#utility.yul\":4030:4033   */\n      dup5\n        /* \"#utility.yul\":4026:4065   */\n      add\n        /* \"#utility.yul\":4019:4065   */\n      swap2\n      pop\n        /* \"#utility.yul\":3799:4071   */\n      pop\n        /* \"#utility.yul\":3707:4071   */\n      swap3\n      swap2\n      pop\n      pop\n      jump\t// out\n        /* \"#utility.yul\":4123:4708   */\n    tag_114:\n        /* \"#utility.yul\":4220:4223   */\n      0x00\n        /* \"#utility.yul\":4256:4260   */\n      0x40\n        /* \"#utility.yul\":4251:4254   */\n      dup4\n        /* \"#utility.yul\":4247:4261   */\n      add\n        /* \"#utility.yul\":4343:4347   */\n      0x00\n        /* \"#utility.yul\":4336:4341   */\n      dup4\n        /* \"#utility.yul\":4332:4348   */\n      add\n        /* \"#utility.yul\":4326:4349   */\n      mload\n        /* \"#utility.yul\":4396:4399   */\n      dup5\n        /* \"#utility.yul\":4390:4394   */\n      dup3\n        /* \"#utility.yul\":4386:4400   */\n      sub\n        /* \"#utility.yul\":4379:4383   */\n      0x00\n        /* \"#utility.yul\":4374:4377   */\n      dup7\n        /* \"#utility.yul\":4370:4384   */\n      add\n        /* \"#utility.yul\":4363:4401   */\n      mstore\n        /* \"#utility.yul\":4422:4495   */\n      tag_154\n        /* \"#utility.yul\":4490:4494   */\n      dup3\n        /* \"#utility.yul\":4476:4488   */\n      dup3\n        /* \"#utility.yul\":4422:4495   */\n      tag_136\n      jump\t// in\n    tag_154:\n        /* \"#utility.yul\":4414:4495   */\n      swap2\n      pop\n        /* \"#utility.yul\":4271:4506   */\n      pop\n        /* \"#utility.yul\":4595:4599   */\n      0x20\n        /* \"#utility.yul\":4588:4593   */\n      dup4\n        /* \"#utility.yul\":4584:4600   */\n      add\n        /* \"#utility.yul\":4578:4601   */\n      mload\n        /* \"#utility.yul\":4614:4671   */\n      tag_155\n        /* \"#utility.yul\":4665:4669   */\n      0x20\n        /* \"#utility.yul\":4660:4663   */\n      dup7\n        /* \"#utility.yul\":4656:4670   */\n      add\n        /* \"#utility.yul\":4642:4654   */\n      dup3\n        /* \"#utility.yul\":4614:4671   */\n      tag_129\n      jump\t// in\n    tag_155:\n        /* \"#utility.yul\":4516:4681   */\n      pop\n        /* \"#utility.yul\":4698:4702   */\n      dup1\n        /* \"#utility.yul\":4691:4702   */\n      swap2\n      pop\n        /* \"#utility.yul\":4225:4708   */\n      pop\n        /* \"#utility.yul\":4123:4708   */\n      swap3\n      swap2\n      pop\n      pop\n      jump\t// out\n        /* \"#utility.yul\":4714:5163   */\n    tag_19:\n        /* \"#utility.yul\":4895:4899   */\n      0x00\n        /* \"#utility.yul\":4933:4935   */\n      0x20\n        /* \"#utility.yul\":4922:4931   */\n      dup3\n        /* \"#utility.yul\":4918:4936   */\n      add\n        /* \"#utility.yul\":4910:4936   */\n      swap1\n      pop\n        /* \"#utility.yul\":4982:4991   */\n      dup2\n        /* \"#utility.yul\":4976:4980   */\n      dup2\n        /* \"#utility.yul\":4972:4992   */\n      sub\n        /* \"#utility.yul\":4968:4969   */\n      0x00\n        /* \"#utility.yul\":4957:4966   */\n      dup4\n        /* \"#utility.yul\":4953:4970   */\n      add\n        /* \"#utility.yul\":4946:4993   */\n      mstore\n        /* \"#utility.yul\":5010:5156   */\n      tag_157\n        /* \"#utility.yul\":5151:5155   */\n      dup2\n        /* \"#utility.yul\":5142:5148   */\n      dup5\n        /* \"#utility.yul\":5010:5156   */\n      tag_115\n      jump\t// in\n    tag_157:\n        /* \"#utility.yul\":5002:5156   */\n      swap1\n      pop\n        /* \"#utility.yul\":4714:5163   */\n      swap3\n      swap2\n      pop\n      pop\n      jump\t// out\n        /* \"#utility.yul\":5169:5580   */\n    tag_15:\n        /* \"#utility.yul\":5304:5308   */\n      0x00\n        /* \"#utility.yul\":5342:5344   */\n      0x40\n        /* \"#utility.yul\":5331:5340   */\n      dup3\n        /* \"#utility.yul\":5327:5345   */\n      add\n        /* \"#utility.yul\":5319:5345   */\n      swap1\n      pop\n        /* \"#utility.yul\":5391:5400   */\n      dup2\n        /* \"#utility.yul\":5385:5389   */\n      dup2\n        /* \"#utility.yul\":5381:5401   */\n      sub\n        /* \"#utility.yul\":5377:5378   */\n      0x00\n        /* \"#utility.yul\":5366:5375   */\n      dup4\n        /* \"#utility.yul\":5362:5379   */\n      add\n        /* \"#utility.yul\":5355:5402   */\n      mstore\n        /* \"#utility.yul\":5419:5497   */\n      tag_159\n        /* \"#utility.yul\":5492:5496   */\n      dup2\n        /* \"#utility.yul\":5483:5489   */\n      dup6\n        /* \"#utility.yul\":5419:5497   */\n      tag_146\n      jump\t// in\n    tag_159:\n        /* \"#utility.yul\":5411:5497   */\n      swap1\n      pop\n        /* \"#utility.yul\":5507:5573   */\n      tag_160\n        /* \"#utility.yul\":5569:5571   */\n      0x20\n        /* \"#utility.yul\":5558:5567   */\n      dup4\n        /* \"#utility.yul\":5554:5572   */\n      add\n        /* \"#utility.yul\":5545:5551   */\n      dup5\n        /* \"#utility.yul\":5507:5573   */\n      tag_133\n      jump\t// in\n    tag_160:\n        /* \"#utility.yul\":5169:5580   */\n      swap4\n      swap3\n      pop\n      pop\n      pop\n      jump\t// out\n        /* \"#utility.yul\":5586:5715   */\n    tag_83:\n        /* \"#utility.yul\":5620:5626   */\n      0x00\n        /* \"#utility.yul\":5647:5667   */\n      tag_162\n      tag_163\n      jump\t// in\n    tag_162:\n        /* \"#utility.yul\":5637:5667   */\n      swap1\n      pop\n        /* \"#utility.yul\":5676:5709   */\n      tag_164\n        /* \"#utility.yul\":5704:5708   */\n      dup3\n        /* \"#utility.yul\":5696:5702   */\n      dup3\n        /* \"#utility.yul\":5676:5709   */\n      tag_165\n      jump\t// in\n    tag_164:\n        /* \"#utility.yul\":5586:5715   */\n      swap2\n      swap1\n      pop\n      jump\t// out\n        /* \"#utility.yul\":5721:5796   */\n    tag_163:\n        /* \"#utility.yul\":5754:5760   */\n      0x00\n        /* \"#utility.yul\":5787:5789   */\n      0x40\n        /* \"#utility.yul\":5781:5790   */\n      mload\n        /* \"#utility.yul\":5771:5790   */\n      swap1\n      pop\n        /* \"#utility.yul\":5721:5796   */\n      swap1\n      jump\t// out\n        /* \"#utility.yul\":5802:6110   */\n    tag_82:\n        /* \"#utility.yul\":5864:5868   */\n      0x00\n        /* \"#utility.yul\":5954:5972   */\n      0xffffffffffffffff\n        /* \"#utility.yul\":5946:5952   */\n      dup3\n        /* \"#utility.yul\":5943:5973   */\n      gt\n        /* \"#utility.yul\":5940:5996   */\n      iszero\n      tag_168\n      jumpi\n        /* \"#utility.yul\":5976:5994   */\n      tag_169\n      tag_170\n      jump\t// in\n    tag_169:\n        /* \"#utility.yul\":5940:5996   */\n    tag_168:\n        /* \"#utility.yul\":6014:6043   */\n      tag_171\n        /* \"#utility.yul\":6036:6042   */\n      dup3\n        /* \"#utility.yul\":6014:6043   */\n      tag_145\n      jump\t// in\n    tag_171:\n        /* \"#utility.yul\":6006:6043   */\n      swap1\n      pop\n        /* \"#utility.yul\":6098:6102   */\n      0x20\n        /* \"#utility.yul\":6092:6096   */\n      dup2\n        /* \"#utility.yul\":6088:6103   */\n      add\n        /* \"#utility.yul\":6080:6103   */\n      swap1\n      pop\n        /* \"#utility.yul\":5802:6110   */\n      swap2\n      swap1\n      pop\n      jump\t// out\n        /* \"#utility.yul\":6116:6267   */\n    tag_122:\n        /* \"#utility.yul\":6202:6206   */\n      0x00\n        /* \"#utility.yul\":6225:6228   */\n      dup2\n        /* \"#utility.yul\":6217:6228   */\n      swap1\n      pop\n        /* \"#utility.yul\":6255:6259   */\n      0x20\n        /* \"#utility.yul\":6250:6253   */\n      dup3\n        /* \"#utility.yul\":6246:6260   */\n      add\n        /* \"#utility.yul\":6238:6260   */\n      swap1\n      pop\n        /* \"#utility.yul\":6116:6267   */\n      swap2\n      swap1\n      pop\n      jump\t// out\n        /* \"#utility.yul\":6273:6406   */\n    tag_118:\n        /* \"#utility.yul\":6359:6365   */\n      0x00\n        /* \"#utility.yul\":6393:6398   */\n      dup2\n        /* \"#utility.yul\":6387:6399   */\n      mload\n        /* \"#utility.yul\":6377:6399   */\n      swap1\n      pop\n        /* \"#utility.yul\":6273:6406   */\n      swap2\n      swap1\n      pop\n      jump\t// out\n        /* \"#utility.yul\":6412:6511   */\n    tag_139:\n        /* \"#utility.yul\":6464:6470   */\n      0x00\n        /* \"#utility.yul\":6498:6503   */\n      dup2\n        /* \"#utility.yul\":6492:6504   */\n      mload\n        /* \"#utility.yul\":6482:6504   */\n      swap1\n      pop\n        /* \"#utility.yul\":6412:6511   */\n      swap2\n      swap1\n      pop\n      jump\t// out\n        /* \"#utility.yul\":6517:6649   */\n    tag_128:\n        /* \"#utility.yul\":6606:6610   */\n      0x00\n        /* \"#utility.yul\":6638:6642   */\n      0x20\n        /* \"#utility.yul\":6633:6636   */\n      dup3\n        /* \"#utility.yul\":6629:6643   */\n      add\n        /* \"#utility.yul\":6621:6643   */\n      swap1\n      pop\n        /* \"#utility.yul\":6517:6649   */\n      swap2\n      swap1\n      pop\n      jump\t// out\n        /* \"#utility.yul\":6655:6858   */\n    tag_120:\n        /* \"#utility.yul\":6773:6784   */\n      0x00\n        /* \"#utility.yul\":6807:6813   */\n      dup3\n        /* \"#utility.yul\":6802:6805   */\n      dup3\n        /* \"#utility.yul\":6795:6814   */\n      mstore\n        /* \"#utility.yul\":6847:6851   */\n      0x20\n        /* \"#utility.yul\":6842:6845   */\n      dup3\n        /* \"#utility.yul\":6838:6852   */\n      add\n        /* \"#utility.yul\":6823:6852   */\n      swap1\n      pop\n        /* \"#utility.yul\":6655:6858   */\n      swap3\n      swap2\n      pop\n      pop\n      jump\t// out\n        /* \"#utility.yul\":6864:7023   */\n    tag_141:\n        /* \"#utility.yul\":6938:6949   */\n      0x00\n        /* \"#utility.yul\":6972:6978   */\n      dup3\n        /* \"#utility.yul\":6967:6970   */\n      dup3\n        /* \"#utility.yul\":6960:6979   */\n      mstore\n        /* \"#utility.yul\":7012:7016   */\n      0x20\n        /* \"#utility.yul\":7007:7010   */\n      dup3\n        /* \"#utility.yul\":7003:7017   */\n      add\n        /* \"#utility.yul\":6988:7017   */\n      swap1\n      pop\n        /* \"#utility.yul\":6864:7023   */\n      swap3\n      swap2\n      pop\n      pop\n      jump\t// out\n        /* \"#utility.yul\":7029:7198   */\n    tag_150:\n        /* \"#utility.yul\":7113:7124   */\n      0x00\n        /* \"#utility.yul\":7147:7153   */\n      dup3\n        /* \"#utility.yul\":7142:7145   */\n      dup3\n        /* \"#utility.yul\":7135:7154   */\n      mstore\n        /* \"#utility.yul\":7187:7191   */\n      0x20\n        /* \"#utility.yul\":7182:7185   */\n      dup3\n        /* \"#utility.yul\":7178:7192   */\n      add\n        /* \"#utility.yul\":7163:7192   */\n      swap1\n      pop\n        /* \"#utility.yul\":7029:7198   */\n      swap3\n      swap2\n      pop\n      pop\n      jump\t// out\n        /* \"#utility.yul\":7204:7294   */\n    tag_132:\n        /* \"#utility.yul\":7238:7245   */\n      0x00\n        /* \"#utility.yul\":7281:7286   */\n      dup2\n        /* \"#utility.yul\":7274:7287   */\n      iszero\n        /* \"#utility.yul\":7267:7288   */\n      iszero\n        /* \"#utility.yul\":7256:7288   */\n      swap1\n      pop\n        /* \"#utility.yul\":7204:7294   */\n      swap2\n      swap1\n      pop\n      jump\t// out\n        /* \"#utility.yul\":7300:7377   */\n    tag_180:\n        /* \"#utility.yul\":7337:7344   */\n      0x00\n        /* \"#utility.yul\":7366:7371   */\n      dup2\n        /* \"#utility.yul\":7355:7371   */\n      swap1\n      pop\n        /* \"#utility.yul\":7300:7377   */\n      swap2\n      swap1\n      pop\n      jump\t// out\n        /* \"#utility.yul\":7383:7537   */\n    tag_88:\n        /* \"#utility.yul\":7467:7473   */\n      dup3\n        /* \"#utility.yul\":7462:7465   */\n      dup2\n        /* \"#utility.yul\":7457:7460   */\n      dup4\n        /* \"#utility.yul\":7444:7474   */\n      calldatacopy\n        /* \"#utility.yul\":7529:7530   */\n      0x00\n        /* \"#utility.yul\":7520:7526   */\n      dup4\n        /* \"#utility.yul\":7515:7518   */\n      dup4\n        /* \"#utility.yul\":7511:7527   */\n      add\n        /* \"#utility.yul\":7504:7531   */\n      mstore\n        /* \"#utility.yul\":7383:7537   */\n      pop\n      pop\n      pop\n      jump\t// out\n        /* \"#utility.yul\":7543:7850   */\n    tag_143:\n        /* \"#utility.yul\":7611:7612   */\n      0x00\n        /* \"#utility.yul\":7621:7734   */\n    tag_184:\n        /* \"#utility.yul\":7635:7641   */\n      dup4\n        /* \"#utility.yul\":7632:7633   */\n      dup2\n        /* \"#utility.yul\":7629:7642   */\n      lt\n        /* \"#utility.yul\":7621:7734   */\n      iszero\n      tag_186\n      jumpi\n        /* \"#utility.yul\":7720:7721   */\n      dup1\n        /* \"#utility.yul\":7715:7718   */\n      dup3\n        /* \"#utility.yul\":7711:7722   */\n      add\n        /* \"#utility.yul\":7705:7723   */\n      mload\n        /* \"#utility.yul\":7701:7702   */\n      dup2\n        /* \"#utility.yul\":7696:7699   */\n      dup5\n        /* \"#utility.yul\":7692:7703   */\n      add\n        /* \"#utility.yul\":7685:7724   */\n      mstore\n        /* \"#utility.yul\":7657:7659   */\n      0x20\n        /* \"#utility.yul\":7654:7655   */\n      dup2\n        /* \"#utility.yul\":7650:7660   */\n      add\n        /* \"#utility.yul\":7645:7660   */\n      swap1\n      pop\n        /* \"#utility.yul\":7621:7734   */\n      jump(tag_184)\n    tag_186:\n        /* \"#utility.yul\":7752:7758   */\n      dup4\n        /* \"#utility.yul\":7749:7750   */\n      dup2\n        /* \"#utility.yul\":7746:7759   */\n      gt\n        /* \"#utility.yul\":7743:7844   */\n      iszero\n      tag_187\n      jumpi\n        /* \"#utility.yul\":7832:7833   */\n      0x00\n        /* \"#utility.yul\":7823:7829   */\n      dup5\n        /* \"#utility.yul\":7818:7821   */\n      dup5\n        /* \"#utility.yul\":7814:7830   */\n      add\n        /* \"#utility.yul\":7807:7834   */\n      mstore\n        /* \"#utility.yul\":7743:7844   */\n    tag_187:\n        /* \"#utility.yul\":7592:7850   */\n      pop\n        /* \"#utility.yul\":7543:7850   */\n      pop\n      pop\n      pop\n      jump\t// out\n        /* \"#utility.yul\":7856:8176   */\n    tag_30:\n        /* \"#utility.yul\":7900:7906   */\n      0x00\n        /* \"#utility.yul\":7937:7938   */\n      0x02\n        /* \"#utility.yul\":7931:7935   */\n      dup3\n        /* \"#utility.yul\":7927:7939   */\n      div\n        /* \"#utility.yul\":7917:7939   */\n      swap1\n      pop\n        /* \"#utility.yul\":7984:7985   */\n      0x01\n        /* \"#utility.yul\":7978:7982   */\n      dup3\n        /* \"#utility.yul\":7974:7986   */\n      and\n        /* \"#utility.yul\":8005:8023   */\n      dup1\n        /* \"#utility.yul\":7995:8076   */\n      tag_189\n      jumpi\n        /* \"#utility.yul\":8061:8065   */\n      0x7f\n        /* \"#utility.yul\":8053:8059   */\n      dup3\n        /* \"#utility.yul\":8049:8066   */\n      and\n        /* \"#utility.yul\":8039:8066   */\n      swap2\n      pop\n        /* \"#utility.yul\":7995:8076   */\n    tag_189:\n        /* \"#utility.yul\":8123:8125   */\n      0x20\n        /* \"#utility.yul\":8115:8121   */\n      dup3\n        /* \"#utility.yul\":8112:8126   */\n      lt\n        /* \"#utility.yul\":8092:8110   */\n      dup2\n        /* \"#utility.yul\":8089:8127   */\n      eq\n        /* \"#utility.yul\":8086:8170   */\n      iszero\n      tag_190\n      jumpi\n        /* \"#utility.yul\":8142:8160   */\n      tag_191\n      tag_192\n      jump\t// in\n    tag_191:\n        /* \"#utility.yul\":8086:8170   */\n    tag_190:\n        /* \"#utility.yul\":7907:8176   */\n      pop\n        /* \"#utility.yul\":7856:8176   */\n      swap2\n      swap1\n      pop\n      jump\t// out\n        /* \"#utility.yul\":8182:8463   */\n    tag_165:\n        /* \"#utility.yul\":8265:8292   */\n      tag_194\n        /* \"#utility.yul\":8287:8291   */\n      dup3\n        /* \"#utility.yul\":8265:8292   */\n      tag_145\n      jump\t// in\n    tag_194:\n        /* \"#utility.yul\":8257:8263   */\n      dup2\n        /* \"#utility.yul\":8253:8293   */\n      add\n        /* \"#utility.yul\":8395:8401   */\n      dup2\n        /* \"#utility.yul\":8383:8393   */\n      dup2\n        /* \"#utility.yul\":8380:8402   */\n      lt\n        /* \"#utility.yul\":8359:8377   */\n      0xffffffffffffffff\n        /* \"#utility.yul\":8347:8357   */\n      dup3\n        /* \"#utility.yul\":8344:8378   */\n      gt\n        /* \"#utility.yul\":8341:8403   */\n      or\n        /* \"#utility.yul\":8338:8426   */\n      iszero\n      tag_195\n      jumpi\n        /* \"#utility.yul\":8406:8424   */\n      tag_196\n      tag_170\n      jump\t// in\n    tag_196:\n        /* \"#utility.yul\":8338:8426   */\n    tag_195:\n        /* \"#utility.yul\":8446:8456   */\n      dup1\n        /* \"#utility.yul\":8442:8444   */\n      0x40\n        /* \"#utility.yul\":8435:8457   */\n      mstore\n        /* \"#utility.yul\":8225:8463   */\n      pop\n        /* \"#utility.yul\":8182:8463   */\n      pop\n      pop\n      jump\t// out\n        /* \"#utility.yul\":8469:8649   */\n    tag_192:\n        /* \"#utility.yul\":8517:8594   */\n      0x4e487b7100000000000000000000000000000000000000000000000000000000\n        /* \"#utility.yul\":8514:8515   */\n      0x00\n        /* \"#utility.yul\":8507:8595   */\n      mstore\n        /* \"#utility.yul\":8614:8618   */\n      0x22\n        /* \"#utility.yul\":8611:8612   */\n      0x04\n        /* \"#utility.yul\":8604:8619   */\n      mstore\n        /* \"#utility.yul\":8638:8642   */\n      0x24\n        /* \"#utility.yul\":8635:8636   */\n      0x00\n        /* \"#utility.yul\":8628:8643   */\n      revert\n        /* \"#utility.yul\":8655:8835   */\n    tag_170:\n        /* \"#utility.yul\":8703:8780   */\n      0x4e487b7100000000000000000000000000000000000000000000000000000000\n        /* \"#utility.yul\":8700:8701   */\n      0x00\n        /* \"#utility.yul\":8693:8781   */\n      mstore\n        /* \"#utility.yul\":8800:8804   */\n      0x41\n        /* \"#utility.yul\":8797:8798   */\n      0x04\n        /* \"#utility.yul\":8790:8805   */\n      mstore\n        /* \"#utility.yul\":8824:8828   */\n      0x24\n        /* \"#utility.yul\":8821:8822   */\n      0x00\n        /* \"#utility.yul\":8814:8829   */\n      revert\n        /* \"#utility.yul\":8841:8958   */\n    tag_93:\n        /* \"#utility.yul\":8950:8951   */\n      0x00\n        /* \"#utility.yul\":8947:8948   */\n      dup1\n        /* \"#utility.yul\":8940:8952   */\n      revert\n        /* \"#utility.yul\":8964:9081   */\n    tag_86:\n        /* \"#utility.yul\":9073:9074   */\n      0x00\n        /* \"#utility.yul\":9070:9071   */\n      dup1\n        /* \"#utility.yul\":9063:9075   */\n      revert\n        /* \"#utility.yul\":9087:9204   */\n    tag_105:\n        /* \"#utility.yul\":9196:9197   */\n      0x00\n        /* \"#utility.yul\":9193:9194   */\n      dup1\n        /* \"#utility.yul\":9186:9198   */\n      revert\n        /* \"#utility.yul\":9210:9327   */\n    tag_102:\n        /* \"#utility.yul\":9319:9320   */\n      0x00\n        /* \"#utility.yul\":9316:9317   */\n      dup1\n        /* \"#utility.yul\":9309:9321   */\n      revert\n        /* \"#utility.yul\":9333:9435   */\n    tag_145:\n        /* \"#utility.yul\":9374:9380   */\n      0x00\n        /* \"#utility.yul\":9425:9427   */\n      0x1f\n        /* \"#utility.yul\":9421:9428   */\n      not\n        /* \"#utility.yul\":9416:9418   */\n      0x1f\n        /* \"#utility.yul\":9409:9414   */\n      dup4\n        /* \"#utility.yul\":9405:9419   */\n      add\n        /* \"#utility.yul\":9401:9429   */\n      and\n        /* \"#utility.yul\":9391:9429   */\n      swap1\n      pop\n        /* \"#utility.yul\":9333:9435   */\n      swap2\n      swap1\n      pop\n      jump\t// out\n        /* \"#utility.yul\":9441:9563   */\n    tag_98:\n        /* \"#utility.yul\":9514:9538   */\n      tag_205\n        /* \"#utility.yul\":9532:9537   */\n      dup2\n        /* \"#utility.yul\":9514:9538   */\n      tag_180\n      jump\t// in\n    tag_205:\n        /* \"#utility.yul\":9507:9512   */\n      dup2\n        /* \"#utility.yul\":9504:9539   */\n      eq\n        /* \"#utility.yul\":9494:9557   */\n      tag_206\n      jumpi\n        /* \"#utility.yul\":9553:9554   */\n      0x00\n        /* \"#utility.yul\":9550:9551   */\n      dup1\n        /* \"#utility.yul\":9543:9555   */\n      revert\n        /* \"#utility.yul\":9494:9557   */\n    tag_206:\n        /* \"#utility.yul\":9441:9563   */\n      pop\n      jump\t// out\n\n    auxdata: 0xa2646970667358221220f3f16d68cc150ede3301f7f1cba14cec997f12795725a2fcc3d97fa71c913e6564736f6c63430008070033\n}\n",
				"bytecode": {
					"linkReferences": {},
					"object": "608060405234801561001057600080fd5b50610b22806100206000396000f3fe608060405234801561001057600080fd5b50600436106100415760003560e01c806369306b3a146100465780638d97767214610062578063a31662d214610093575b600080fd5b610060600480360381019061005b91906106bd565b6100b1565b005b61007c60048036038101906100779190610706565b6101d6565b60405161008a9291906108ab565b60405180910390f35b61009b61029f565b6040516100a89190610889565b60405180910390f35b600160003373ffffffffffffffffffffffffffffffffffffffff1673ffffffffffffffffffffffffffffffffffffffff16815260200190815260200160002060009080546101009291906103e8565b5060006040518060400160405280838152602001600015158152509080600181540180825580915050600190039060005260206000209060020201600090919091909150600082015181600001908051906020019061016092919061048d565b5060208201518160010160006101000a81548160ff02191690831515021790555050506000600160003373ffffffffffffffffffffffffffffffffffffffff1673ffffffffffffffffffffffffffffffffffffffff1681526020019081526020016000209080546101d29291906103e8565b5050565b600081815481106101e657600080fd5b9060005260206000209060020201600091509050806000018054610209906109ef565b80601f0160208091040260200160405190810160405280929190818152602001828054610235906109ef565b80156102825780601f1061025757610100808354040283529160200191610282565b820191906000526020600020905b81548152906001019060200180831161026557829003601f168201915b5050505050908060010160009054906101000a900460ff16905082565b6060600160003373ffffffffffffffffffffffffffffffffffffffff1673ffffffffffffffffffffffffffffffffffffffff168152602001908152602001600020805480602002602001604051908101604052809291908181526020016000905b828210156103df5783829060005260206000209060020201604051806040016040529081600082018054610333906109ef565b80601f016020809104026020016040519081016040528092919081815260200182805461035f906109ef565b80156103ac5780601f10610381576101008083540402835291602001916103ac565b820191906000526020600020905b81548152906001019060200180831161038f57829003601f168201915b505050505081526020016001820160009054906101000a900460ff16151515158152505081526020019060010190610300565b50505050905090565b82805482825590600052602060002090600202810192821561047c5760005260206000209160020282015b8281111561047b5782826000820181600001908054610431906109ef565b61043c929190610513565b506001820160009054906101000a900460ff168160010160006101000a81548160ff021916908315150217905550505091600201919060020190610413565b5b50905061048991906105a0565b5090565b828054610499906109ef565b90600052602060002090601f0160209004810192826104bb5760008555610502565b82601f106104d457805160ff1916838001178555610502565b82800160010185558215610502579182015b828111156105015782518255916020019190600101906104e6565b5b50905061050f91906105db565b5090565b82805461051f906109ef565b90600052602060002090601f016020900481019282610541576000855561058f565b82601f10610552578054855561058f565b8280016001018555821561058f57600052602060002091601f016020900482015b8281111561058e578254825591600101919060010190610573565b5b50905061059c91906105db565b5090565b5b808211156105d757600080820160006105ba91906105f8565b6001820160006101000a81549060ff0219169055506002016105a1565b5090565b5b808211156105f45760008160009055506001016105dc565b5090565b508054610604906109ef565b6000825580601f106106165750610635565b601f01602090049060005260206000209081019061063491906105db565b5b50565b600061064b61064684610900565b6108db565b90508281526020810184848401111561066757610666610ab5565b5b6106728482856109ad565b509392505050565b600082601f83011261068f5761068e610ab0565b5b813561069f848260208601610638565b91505092915050565b6000813590506106b781610ad5565b92915050565b6000602082840312156106d3576106d2610abf565b5b600082013567ffffffffffffffff8111156106f1576106f0610aba565b5b6106fd8482850161067a565b91505092915050565b60006020828403121561071c5761071b610abf565b5b600061072a848285016106a8565b91505092915050565b600061073f838361084c565b905092915050565b600061075282610941565b61075c8185610964565b93508360208202850161076e85610931565b8060005b858110156107aa578484038952815161078b8582610733565b945061079683610957565b925060208a01995050600181019050610772565b50829750879550505050505092915050565b6107c581610997565b82525050565b6107d481610997565b82525050565b60006107e58261094c565b6107ef8185610975565b93506107ff8185602086016109bc565b61080881610ac4565b840191505092915050565b600061081e8261094c565b6108288185610986565b93506108388185602086016109bc565b61084181610ac4565b840191505092915050565b6000604083016000830151848203600086015261086982826107da565b915050602083015161087e60208601826107bc565b508091505092915050565b600060208201905081810360008301526108a38184610747565b905092915050565b600060408201905081810360008301526108c58185610813565b90506108d460208301846107cb565b9392505050565b60006108e56108f6565b90506108f18282610a21565b919050565b6000604051905090565b600067ffffffffffffffff82111561091b5761091a610a81565b5b61092482610ac4565b9050602081019050919050565b6000819050602082019050919050565b600081519050919050565b600081519050919050565b6000602082019050919050565b600082825260208201905092915050565b600082825260208201905092915050565b600082825260208201905092915050565b60008115159050919050565b6000819050919050565b82818337600083830152505050565b60005b838110156109da5780820151818401526020810190506109bf565b838111156109e9576000848401525b50505050565b60006002820490506001821680610a0757607f821691505b60208210811415610a1b57610a1a610a52565b5b50919050565b610a2a82610ac4565b810181811067ffffffffffffffff82111715610a4957610a48610a81565b5b80604052505050565b7f4e487b7100000000000000000000000000000000000000000000000000000000600052602260045260246000fd5b7f4e487b7100000000000000000000000000000000000000000000000000000000600052604160045260246000fd5b600080fd5b600080fd5b600080fd5b600080fd5b6000601f19601f8301169050919050565b610ade816109a3565b8114610ae957600080fd5b5056fea2646970667358221220f3f16d68cc150ede3301f7f1cba14cec997f12795725a2fcc3d97fa71c913e6564736f6c63430008070033",
					"opcodes": "PUSH1 0x80 PUSH1 0x40 MSTORE CALLVALUE DUP1 ISZERO PUSH2 0x10 JUMPI PUSH1 0x0 DUP1 REVERT JUMPDEST POP PUSH2 0xB22 DUP1 PUSH2 0x20 PUSH1 0x0 CODECOPY PUSH1 0x0 RETURN INVALID PUSH1 0x80 PUSH1 0x40 MSTORE CALLVALUE DUP1 ISZERO PUSH2 0x10 JUMPI PUSH1 0x0 DUP1 REVERT JUMPDEST POP PUSH1 0x4 CALLDATASIZE LT PUSH2 0x41 JUMPI PUSH1 0x0 CALLDATALOAD PUSH1 0xE0 SHR DUP1 PUSH4 0x69306B3A EQ PUSH2 0x46 JUMPI DUP1 PUSH4 0x8D977672 EQ PUSH2 0x62 JUMPI DUP1 PUSH4 0xA31662D2 EQ PUSH2 0x93 JUMPI JUMPDEST PUSH1 0x0 DUP1 REVERT JUMPDEST PUSH2 0x60 PUSH1 0x4 DUP1 CALLDATASIZE SUB DUP2 ADD SWAP1 PUSH2 0x5B SWAP2 SWAP1 PUSH2 0x6BD JUMP JUMPDEST PUSH2 0xB1 JUMP JUMPDEST STOP JUMPDEST PUSH2 0x7C PUSH1 0x4 DUP1 CALLDATASIZE SUB DUP2 ADD SWAP1 PUSH2 0x77 SWAP2 SWAP1 PUSH2 0x706 JUMP JUMPDEST PUSH2 0x1D6 JUMP JUMPDEST PUSH1 0x40 MLOAD PUSH2 0x8A SWAP3 SWAP2 SWAP1 PUSH2 0x8AB JUMP JUMPDEST PUSH1 0x40 MLOAD DUP1 SWAP2 SUB SWAP1 RETURN JUMPDEST PUSH2 0x9B PUSH2 0x29F JUMP JUMPDEST PUSH1 0x40 MLOAD PUSH2 0xA8 SWAP2 SWAP1 PUSH2 0x889 JUMP JUMPDEST PUSH1 0x40 MLOAD DUP1 SWAP2 SUB SWAP1 RETURN JUMPDEST PUSH1 0x1 PUSH1 0x0 CALLER PUSH20 0xFFFFFFFFFFFFFFFFFFFFFFFFFFFFFFFFFFFFFFFF AND PUSH20 0xFFFFFFFFFFFFFFFFFFFFFFFFFFFFFFFFFFFFFFFF AND DUP2 MSTORE PUSH1 0x20 ADD SWAP1 DUP2 MSTORE PUSH1 0x20 ADD PUSH1 0x0 KECCAK256 PUSH1 0x0 SWAP1 DUP1 SLOAD PUSH2 0x100 SWAP3 SWAP2 SWAP1 PUSH2 0x3E8 JUMP JUMPDEST POP PUSH1 0x0 PUSH1 0x40 MLOAD DUP1 PUSH1 0x40 ADD PUSH1 0x40 MSTORE DUP1 DUP4 DUP2 MSTORE PUSH1 0x20 ADD PUSH1 0x0 ISZERO ISZERO DUP2 MSTORE POP SWAP1 DUP1 PUSH1 0x1 DUP2 SLOAD ADD DUP1 DUP3 SSTORE DUP1 SWAP2 POP POP PUSH1 0x1 SWAP1 SUB SWAP1 PUSH1 0x0 MSTORE PUSH1 0x20 PUSH1 0x0 KECCAK256 SWAP1 PUSH1 0x2 MUL ADD PUSH1 0x0 SWAP1 SWAP2 SWAP1 SWAP2 SWAP1 SWAP2 POP PUSH1 0x0 DUP3 ADD MLOAD DUP2 PUSH1 0x0 ADD SWAP1 DUP1 MLOAD SWAP1 PUSH1 0x20 ADD SWAP1 PUSH2 0x160 SWAP3 SWAP2 SWAP1 PUSH2 0x48D JUMP JUMPDEST POP PUSH1 0x20 DUP3 ADD MLOAD DUP2 PUSH1 0x1 ADD PUSH1 0x0 PUSH2 0x100 EXP DUP2 SLOAD DUP2 PUSH1 0xFF MUL NOT AND SWAP1 DUP4 ISZERO ISZERO MUL OR SWAP1 SSTORE POP POP POP PUSH1 0x0 PUSH1 0x1 PUSH1 0x0 CALLER PUSH20 0xFFFFFFFFFFFFFFFFFFFFFFFFFFFFFFFFFFFFFFFF AND PUSH20 0xFFFFFFFFFFFFFFFFFFFFFFFFFFFFFFFFFFFFFFFF AND DUP2 MSTORE PUSH1 0x20 ADD SWAP1 DUP2 MSTORE PUSH1 0x20 ADD PUSH1 0x0 KECCAK256 SWAP1 DUP1 SLOAD PUSH2 0x1D2 SWAP3 SWAP2 SWAP1 PUSH2 0x3E8 JUMP JUMPDEST POP POP JUMP JUMPDEST PUSH1 0x0 DUP2 DUP2 SLOAD DUP2 LT PUSH2 0x1E6 JUMPI PUSH1 0x0 DUP1 REVERT JUMPDEST SWAP1 PUSH1 0x0 MSTORE PUSH1 0x20 PUSH1 0x0 KECCAK256 SWAP1 PUSH1 0x2 MUL ADD PUSH1 0x0 SWAP2 POP SWAP1 POP DUP1 PUSH1 0x0 ADD DUP1 SLOAD PUSH2 0x209 SWAP1 PUSH2 0x9EF JUMP JUMPDEST DUP1 PUSH1 0x1F ADD PUSH1 0x20 DUP1 SWAP2 DIV MUL PUSH1 0x20 ADD PUSH1 0x40 MLOAD SWAP1 DUP2 ADD PUSH1 0x40 MSTORE DUP1 SWAP3 SWAP2 SWAP1 DUP2 DUP2 MSTORE PUSH1 0x20 ADD DUP3 DUP1 SLOAD PUSH2 0x235 SWAP1 PUSH2 0x9EF JUMP JUMPDEST DUP1 ISZERO PUSH2 0x282 JUMPI DUP1 PUSH1 0x1F LT PUSH2 0x257 JUMPI PUSH2 0x100 DUP1 DUP4 SLOAD DIV MUL DUP4 MSTORE SWAP2 PUSH1 0x20 ADD SWAP2 PUSH2 0x282 JUMP JUMPDEST DUP3 ADD SWAP2 SWAP1 PUSH1 0x0 MSTORE PUSH1 0x20 PUSH1 0x0 KECCAK256 SWAP1 JUMPDEST DUP2 SLOAD DUP2 MSTORE SWAP1 PUSH1 0x1 ADD SWAP1 PUSH1 0x20 ADD DUP1 DUP4 GT PUSH2 0x265 JUMPI DUP3 SWAP1 SUB PUSH1 0x1F AND DUP3 ADD SWAP2 JUMPDEST POP POP POP POP POP SWAP1 DUP1 PUSH1 0x1 ADD PUSH1 0x0 SWAP1 SLOAD SWAP1 PUSH2 0x100 EXP SWAP1 DIV PUSH1 0xFF AND SWAP1 POP DUP3 JUMP JUMPDEST PUSH1 0x60 PUSH1 0x1 PUSH1 0x0 CALLER PUSH20 0xFFFFFFFFFFFFFFFFFFFFFFFFFFFFFFFFFFFFFFFF AND PUSH20 0xFFFFFFFFFFFFFFFFFFFFFFFFFFFFFFFFFFFFFFFF AND DUP2 MSTORE PUSH1 0x20 ADD SWAP1 DUP2 MSTORE PUSH1 0x20 ADD PUSH1 0x0 KECCAK256 DUP1 SLOAD DUP1 PUSH1 0x20 MUL PUSH1 0x20 ADD PUSH1 0x40 MLOAD SWAP1 DUP2 ADD PUSH1 0x40 MSTORE DUP1 SWAP3 SWAP2 SWAP1 DUP2 DUP2 MSTORE PUSH1 0x20 ADD PUSH1 0x0 SWAP1 JUMPDEST DUP3 DUP3 LT ISZERO PUSH2 0x3DF JUMPI DUP4 DUP3 SWAP1 PUSH1 0x0 MSTORE PUSH1 0x20 PUSH1 0x0 KECCAK256 SWAP1 PUSH1 0x2 MUL ADD PUSH1 0x40 MLOAD DUP1 PUSH1 0x40 ADD PUSH1 0x40 MSTORE SWAP1 DUP2 PUSH1 0x0 DUP3 ADD DUP1 SLOAD PUSH2 0x333 SWAP1 PUSH2 0x9EF JUMP JUMPDEST DUP1 PUSH1 0x1F ADD PUSH1 0x20 DUP1 SWAP2 DIV MUL PUSH1 0x20 ADD PUSH1 0x40 MLOAD SWAP1 DUP2 ADD PUSH1 0x40 MSTORE DUP1 SWAP3 SWAP2 SWAP1 DUP2 DUP2 MSTORE PUSH1 0x20 ADD DUP3 DUP1 SLOAD PUSH2 0x35F SWAP1 PUSH2 0x9EF JUMP JUMPDEST DUP1 ISZERO PUSH2 0x3AC JUMPI DUP1 PUSH1 0x1F LT PUSH2 0x381 JUMPI PUSH2 0x100 DUP1 DUP4 SLOAD DIV MUL DUP4 MSTORE SWAP2 PUSH1 0x20 ADD SWAP2 PUSH2 0x3AC JUMP JUMPDEST DUP3 ADD SWAP2 SWAP1 PUSH1 0x0 MSTORE PUSH1 0x20 PUSH1 0x0 KECCAK256 SWAP1 JUMPDEST DUP2 SLOAD DUP2 MSTORE SWAP1 PUSH1 0x1 ADD SWAP1 PUSH1 0x20 ADD DUP1 DUP4 GT PUSH2 0x38F JUMPI DUP3 SWAP1 SUB PUSH1 0x1F AND DUP3 ADD SWAP2 JUMPDEST POP POP POP POP POP DUP2 MSTORE PUSH1 0x20 ADD PUSH1 0x1 DUP3 ADD PUSH1 0x0 SWAP1 SLOAD SWAP1 PUSH2 0x100 EXP SWAP1 DIV PUSH1 0xFF AND ISZERO ISZERO ISZERO ISZERO DUP2 MSTORE POP POP DUP2 MSTORE PUSH1 0x20 ADD SWAP1 PUSH1 0x1 ADD SWAP1 PUSH2 0x300 JUMP JUMPDEST POP POP POP POP SWAP1 POP SWAP1 JUMP JUMPDEST DUP3 DUP1 SLOAD DUP3 DUP3 SSTORE SWAP1 PUSH1 0x0 MSTORE PUSH1 0x20 PUSH1 0x0 KECCAK256 SWAP1 PUSH1 0x2 MUL DUP2 ADD SWAP3 DUP3 ISZERO PUSH2 0x47C JUMPI PUSH1 0x0 MSTORE PUSH1 0x20 PUSH1 0x0 KECCAK256 SWAP2 PUSH1 0x2 MUL DUP3 ADD JUMPDEST DUP3 DUP2 GT ISZERO PUSH2 0x47B JUMPI DUP3 DUP3 PUSH1 0x0 DUP3 ADD DUP2 PUSH1 0x0 ADD SWAP1 DUP1 SLOAD PUSH2 0x431 SWAP1 PUSH2 0x9EF JUMP JUMPDEST PUSH2 0x43C SWAP3 SWAP2 SWAP1 PUSH2 0x513 JUMP JUMPDEST POP PUSH1 0x1 DUP3 ADD PUSH1 0x0 SWAP1 SLOAD SWAP1 PUSH2 0x100 EXP SWAP1 DIV PUSH1 0xFF AND DUP2 PUSH1 0x1 ADD PUSH1 0x0 PUSH2 0x100 EXP DUP2 SLOAD DUP2 PUSH1 0xFF MUL NOT AND SWAP1 DUP4 ISZERO ISZERO MUL OR SWAP1 SSTORE POP POP POP SWAP2 PUSH1 0x2 ADD SWAP2 SWAP1 PUSH1 0x2 ADD SWAP1 PUSH2 0x413 JUMP JUMPDEST JUMPDEST POP SWAP1 POP PUSH2 0x489 SWAP2 SWAP1 PUSH2 0x5A0 JUMP JUMPDEST POP SWAP1 JUMP JUMPDEST DUP3 DUP1 SLOAD PUSH2 0x499 SWAP1 PUSH2 0x9EF JUMP JUMPDEST SWAP1 PUSH1 0x0 MSTORE PUSH1 0x20 PUSH1 0x0 KECCAK256 SWAP1 PUSH1 0x1F ADD PUSH1 0x20 SWAP1 DIV DUP2 ADD SWAP3 DUP3 PUSH2 0x4BB JUMPI PUSH1 0x0 DUP6 SSTORE PUSH2 0x502 JUMP JUMPDEST DUP3 PUSH1 0x1F LT PUSH2 0x4D4 JUMPI DUP1 MLOAD PUSH1 0xFF NOT AND DUP4 DUP1 ADD OR DUP6 SSTORE PUSH2 0x502 JUMP JUMPDEST DUP3 DUP1 ADD PUSH1 0x1 ADD DUP6 SSTORE DUP3 ISZERO PUSH2 0x502 JUMPI SWAP2 DUP3 ADD JUMPDEST DUP3 DUP2 GT ISZERO PUSH2 0x501 JUMPI DUP3 MLOAD DUP3 SSTORE SWAP2 PUSH1 0x20 ADD SWAP2 SWAP1 PUSH1 0x1 ADD SWAP1 PUSH2 0x4E6 JUMP JUMPDEST JUMPDEST POP SWAP1 POP PUSH2 0x50F SWAP2 SWAP1 PUSH2 0x5DB JUMP JUMPDEST POP SWAP1 JUMP JUMPDEST DUP3 DUP1 SLOAD PUSH2 0x51F SWAP1 PUSH2 0x9EF JUMP JUMPDEST SWAP1 PUSH1 0x0 MSTORE PUSH1 0x20 PUSH1 0x0 KECCAK256 SWAP1 PUSH1 0x1F ADD PUSH1 0x20 SWAP1 DIV DUP2 ADD SWAP3 DUP3 PUSH2 0x541 JUMPI PUSH1 0x0 DUP6 SSTORE PUSH2 0x58F JUMP JUMPDEST DUP3 PUSH1 0x1F LT PUSH2 0x552 JUMPI DUP1 SLOAD DUP6 SSTORE PUSH2 0x58F JUMP JUMPDEST DUP3 DUP1 ADD PUSH1 0x1 ADD DUP6 SSTORE DUP3 ISZERO PUSH2 0x58F JUMPI PUSH1 0x0 MSTORE PUSH1 0x20 PUSH1 0x0 KECCAK256 SWAP2 PUSH1 0x1F ADD PUSH1 0x20 SWAP1 DIV DUP3 ADD JUMPDEST DUP3 DUP2 GT ISZERO PUSH2 0x58E JUMPI DUP3 SLOAD DUP3 SSTORE SWAP2 PUSH1 0x1 ADD SWAP2 SWAP1 PUSH1 0x1 ADD SWAP1 PUSH2 0x573 JUMP JUMPDEST JUMPDEST POP SWAP1 POP PUSH2 0x59C SWAP2 SWAP1 PUSH2 0x5DB JUMP JUMPDEST POP SWAP1 JUMP JUMPDEST JUMPDEST DUP1 DUP3 GT ISZERO PUSH2 0x5D7 JUMPI PUSH1 0x0 DUP1 DUP3 ADD PUSH1 0x0 PUSH2 0x5BA SWAP2 SWAP1 PUSH2 0x5F8 JUMP JUMPDEST PUSH1 0x1 DUP3 ADD PUSH1 0x0 PUSH2 0x100 EXP DUP2 SLOAD SWAP1 PUSH1 0xFF MUL NOT AND SWAP1 SSTORE POP PUSH1 0x2 ADD PUSH2 0x5A1 JUMP JUMPDEST POP SWAP1 JUMP JUMPDEST JUMPDEST DUP1 DUP3 GT ISZERO PUSH2 0x5F4 JUMPI PUSH1 0x0 DUP2 PUSH1 0x0 SWAP1 SSTORE POP PUSH1 0x1 ADD PUSH2 0x5DC JUMP JUMPDEST POP SWAP1 JUMP JUMPDEST POP DUP1 SLOAD PUSH2 0x604 SWAP1 PUSH2 0x9EF JUMP JUMPDEST PUSH1 0x0 DUP3 SSTORE DUP1 PUSH1 0x1F LT PUSH2 0x616 JUMPI POP PUSH2 0x635 JUMP JUMPDEST PUSH1 0x1F ADD PUSH1 0x20 SWAP1 DIV SWAP1 PUSH1 0x0 MSTORE PUSH1 0x20 PUSH1 0x0 KECCAK256 SWAP1 DUP2 ADD SWAP1 PUSH2 0x634 SWAP2 SWAP1 PUSH2 0x5DB JUMP JUMPDEST JUMPDEST POP JUMP JUMPDEST PUSH1 0x0 PUSH2 0x64B PUSH2 0x646 DUP5 PUSH2 0x900 JUMP JUMPDEST PUSH2 0x8DB JUMP JUMPDEST SWAP1 POP DUP3 DUP2 MSTORE PUSH1 0x20 DUP2 ADD DUP5 DUP5 DUP5 ADD GT ISZERO PUSH2 0x667 JUMPI PUSH2 0x666 PUSH2 0xAB5 JUMP JUMPDEST JUMPDEST PUSH2 0x672 DUP5 DUP3 DUP6 PUSH2 0x9AD JUMP JUMPDEST POP SWAP4 SWAP3 POP POP POP JUMP JUMPDEST PUSH1 0x0 DUP3 PUSH1 0x1F DUP4 ADD SLT PUSH2 0x68F JUMPI PUSH2 0x68E PUSH2 0xAB0 JUMP JUMPDEST JUMPDEST DUP2 CALLDATALOAD PUSH2 0x69F DUP5 DUP3 PUSH1 0x20 DUP7 ADD PUSH2 0x638 JUMP JUMPDEST SWAP2 POP POP SWAP3 SWAP2 POP POP JUMP JUMPDEST PUSH1 0x0 DUP2 CALLDATALOAD SWAP1 POP PUSH2 0x6B7 DUP2 PUSH2 0xAD5 JUMP JUMPDEST SWAP3 SWAP2 POP POP JUMP JUMPDEST PUSH1 0x0 PUSH1 0x20 DUP3 DUP5 SUB SLT ISZERO PUSH2 0x6D3 JUMPI PUSH2 0x6D2 PUSH2 0xABF JUMP JUMPDEST JUMPDEST PUSH1 0x0 DUP3 ADD CALLDATALOAD PUSH8 0xFFFFFFFFFFFFFFFF DUP2 GT ISZERO PUSH2 0x6F1 JUMPI PUSH2 0x6F0 PUSH2 0xABA JUMP JUMPDEST JUMPDEST PUSH2 0x6FD DUP5 DUP3 DUP6 ADD PUSH2 0x67A JUMP JUMPDEST SWAP2 POP POP SWAP3 SWAP2 POP POP JUMP JUMPDEST PUSH1 0x0 PUSH1 0x20 DUP3 DUP5 SUB SLT ISZERO PUSH2 0x71C JUMPI PUSH2 0x71B PUSH2 0xABF JUMP JUMPDEST JUMPDEST PUSH1 0x0 PUSH2 0x72A DUP5 DUP3 DUP6 ADD PUSH2 0x6A8 JUMP JUMPDEST SWAP2 POP POP SWAP3 SWAP2 POP POP JUMP JUMPDEST PUSH1 0x0 PUSH2 0x73F DUP4 DUP4 PUSH2 0x84C JUMP JUMPDEST SWAP1 POP SWAP3 SWAP2 POP POP JUMP JUMPDEST PUSH1 0x0 PUSH2 0x752 DUP3 PUSH2 0x941 JUMP JUMPDEST PUSH2 0x75C DUP2 DUP6 PUSH2 0x964 JUMP JUMPDEST SWAP4 POP DUP4 PUSH1 0x20 DUP3 MUL DUP6 ADD PUSH2 0x76E DUP6 PUSH2 0x931 JUMP JUMPDEST DUP1 PUSH1 0x0 JUMPDEST DUP6 DUP2 LT ISZERO PUSH2 0x7AA JUMPI DUP5 DUP5 SUB DUP10 MSTORE DUP2 MLOAD PUSH2 0x78B DUP6 DUP3 PUSH2 0x733 JUMP JUMPDEST SWAP5 POP PUSH2 0x796 DUP4 PUSH2 0x957 JUMP JUMPDEST SWAP3 POP PUSH1 0x20 DUP11 ADD SWAP10 POP POP PUSH1 0x1 DUP2 ADD SWAP1 POP PUSH2 0x772 JUMP JUMPDEST POP DUP3 SWAP8 POP DUP8 SWAP6 POP POP POP POP POP POP SWAP3 SWAP2 POP POP JUMP JUMPDEST PUSH2 0x7C5 DUP2 PUSH2 0x997 JUMP JUMPDEST DUP3 MSTORE POP POP JUMP JUMPDEST PUSH2 0x7D4 DUP2 PUSH2 0x997 JUMP JUMPDEST DUP3 MSTORE POP POP JUMP JUMPDEST PUSH1 0x0 PUSH2 0x7E5 DUP3 PUSH2 0x94C JUMP JUMPDEST PUSH2 0x7EF DUP2 DUP6 PUSH2 0x975 JUMP JUMPDEST SWAP4 POP PUSH2 0x7FF DUP2 DUP6 PUSH1 0x20 DUP7 ADD PUSH2 0x9BC JUMP JUMPDEST PUSH2 0x808 DUP2 PUSH2 0xAC4 JUMP JUMPDEST DUP5 ADD SWAP2 POP POP SWAP3 SWAP2 POP POP JUMP JUMPDEST PUSH1 0x0 PUSH2 0x81E DUP3 PUSH2 0x94C JUMP JUMPDEST PUSH2 0x828 DUP2 DUP6 PUSH2 0x986 JUMP JUMPDEST SWAP4 POP PUSH2 0x838 DUP2 DUP6 PUSH1 0x20 DUP7 ADD PUSH2 0x9BC JUMP JUMPDEST PUSH2 0x841 DUP2 PUSH2 0xAC4 JUMP JUMPDEST DUP5 ADD SWAP2 POP POP SWAP3 SWAP2 POP POP JUMP JUMPDEST PUSH1 0x0 PUSH1 0x40 DUP4 ADD PUSH1 0x0 DUP4 ADD MLOAD DUP5 DUP3 SUB PUSH1 0x0 DUP7 ADD MSTORE PUSH2 0x869 DUP3 DUP3 PUSH2 0x7DA JUMP JUMPDEST SWAP2 POP POP PUSH1 0x20 DUP4 ADD MLOAD PUSH2 0x87E PUSH1 0x20 DUP7 ADD DUP3 PUSH2 0x7BC JUMP JUMPDEST POP DUP1 SWAP2 POP POP SWAP3 SWAP2 POP POP JUMP JUMPDEST PUSH1 0x0 PUSH1 0x20 DUP3 ADD SWAP1 POP DUP2 DUP2 SUB PUSH1 0x0 DUP4 ADD MSTORE PUSH2 0x8A3 DUP2 DUP5 PUSH2 0x747 JUMP JUMPDEST SWAP1 POP SWAP3 SWAP2 POP POP JUMP JUMPDEST PUSH1 0x0 PUSH1 0x40 DUP3 ADD SWAP1 POP DUP2 DUP2 SUB PUSH1 0x0 DUP4 ADD MSTORE PUSH2 0x8C5 DUP2 DUP6 PUSH2 0x813 JUMP JUMPDEST SWAP1 POP PUSH2 0x8D4 PUSH1 0x20 DUP4 ADD DUP5 PUSH2 0x7CB JUMP JUMPDEST SWAP4 SWAP3 POP POP POP JUMP JUMPDEST PUSH1 0x0 PUSH2 0x8E5 PUSH2 0x8F6 JUMP JUMPDEST SWAP1 POP PUSH2 0x8F1 DUP3 DUP3 PUSH2 0xA21 JUMP JUMPDEST SWAP2 SWAP1 POP JUMP JUMPDEST PUSH1 0x0 PUSH1 0x40 MLOAD SWAP1 POP SWAP1 JUMP JUMPDEST PUSH1 0x0 PUSH8 0xFFFFFFFFFFFFFFFF DUP3 GT ISZERO PUSH2 0x91B JUMPI PUSH2 0x91A PUSH2 0xA81 JUMP JUMPDEST JUMPDEST PUSH2 0x924 DUP3 PUSH2 0xAC4 JUMP JUMPDEST SWAP1 POP PUSH1 0x20 DUP2 ADD SWAP1 POP SWAP2 SWAP1 POP JUMP JUMPDEST PUSH1 0x0 DUP2 SWAP1 POP PUSH1 0x20 DUP3 ADD SWAP1 POP SWAP2 SWAP1 POP JUMP JUMPDEST PUSH1 0x0 DUP2 MLOAD SWAP1 POP SWAP2 SWAP1 POP JUMP JUMPDEST PUSH1 0x0 DUP2 MLOAD SWAP1 POP SWAP2 SWAP1 POP JUMP JUMPDEST PUSH1 0x0 PUSH1 0x20 DUP3 ADD SWAP1 POP SWAP2 SWAP1 POP JUMP JUMPDEST PUSH1 0x0 DUP3 DUP3 MSTORE PUSH1 0x20 DUP3 ADD SWAP1 POP SWAP3 SWAP2 POP POP JUMP JUMPDEST PUSH1 0x0 DUP3 DUP3 MSTORE PUSH1 0x20 DUP3 ADD SWAP1 POP SWAP3 SWAP2 POP POP JUMP JUMPDEST PUSH1 0x0 DUP3 DUP3 MSTORE PUSH1 0x20 DUP3 ADD SWAP1 POP SWAP3 SWAP2 POP POP JUMP JUMPDEST PUSH1 0x0 DUP2 ISZERO ISZERO SWAP1 POP SWAP2 SWAP1 POP JUMP JUMPDEST PUSH1 0x0 DUP2 SWAP1 POP SWAP2 SWAP1 POP JUMP JUMPDEST DUP3 DUP2 DUP4 CALLDATACOPY PUSH1 0x0 DUP4 DUP4 ADD MSTORE POP POP POP JUMP JUMPDEST PUSH1 0x0 JUMPDEST DUP4 DUP2 LT ISZERO PUSH2 0x9DA JUMPI DUP1 DUP3 ADD MLOAD DUP2 DUP5 ADD MSTORE PUSH1 0x20 DUP2 ADD SWAP1 POP PUSH2 0x9BF JUMP JUMPDEST DUP4 DUP2 GT ISZERO PUSH2 0x9E9 JUMPI PUSH1 0x0 DUP5 DUP5 ADD MSTORE JUMPDEST POP POP POP POP JUMP JUMPDEST PUSH1 0x0 PUSH1 0x2 DUP3 DIV SWAP1 POP PUSH1 0x1 DUP3 AND DUP1 PUSH2 0xA07 JUMPI PUSH1 0x7F DUP3 AND SWAP2 POP JUMPDEST PUSH1 0x20 DUP3 LT DUP2 EQ ISZERO PUSH2 0xA1B JUMPI PUSH2 0xA1A PUSH2 0xA52 JUMP JUMPDEST JUMPDEST POP SWAP2 SWAP1 POP JUMP JUMPDEST PUSH2 0xA2A DUP3 PUSH2 0xAC4 JUMP JUMPDEST DUP2 ADD DUP2 DUP2 LT PUSH8 0xFFFFFFFFFFFFFFFF DUP3 GT OR ISZERO PUSH2 0xA49 JUMPI PUSH2 0xA48 PUSH2 0xA81 JUMP JUMPDEST JUMPDEST DUP1 PUSH1 0x40 MSTORE POP POP POP JUMP JUMPDEST PUSH32 0x4E487B7100000000000000000000000000000000000000000000000000000000 PUSH1 0x0 MSTORE PUSH1 0x22 PUSH1 0x4 MSTORE PUSH1 0x24 PUSH1 0x0 REVERT JUMPDEST PUSH32 0x4E487B7100000000000000000000000000000000000000000000000000000000 PUSH1 0x0 MSTORE PUSH1 0x41 PUSH1 0x4 MSTORE PUSH1 0x24 PUSH1 0x0 REVERT JUMPDEST PUSH1 0x0 DUP1 REVERT JUMPDEST PUSH1 0x0 DUP1 REVERT JUMPDEST PUSH1 0x0 DUP1 REVERT JUMPDEST PUSH1 0x0 DUP1 REVERT JUMPDEST PUSH1 0x0 PUSH1 0x1F NOT PUSH1 0x1F DUP4 ADD AND SWAP1 POP SWAP2 SWAP1 POP JUMP JUMPDEST PUSH2 0xADE DUP2 PUSH2 0x9A3 JUMP JUMPDEST DUP2 EQ PUSH2 0xAE9 JUMPI PUSH1 0x0 DUP1 REVERT JUMPDEST POP JUMP INVALID LOG2 PUSH5 0x6970667358 0x22 SLT KECCAK256 RETURN CALL PUSH14 0x68CC150EDE3301F7F1CBA14CEC99 PUSH32 0x12795725A2FCC3D97FA71C913E6564736F6C6343000807003300000000000000 "
				},
				"gasEstimates": {
					"creation": {
						"codeDepositCost": "570000",
						"executionCost": "606",
						"totalCost": "570606"
					},
					"external": {
						"getTask()": "infinite",
						"setTask(string)": "infinite",
						"tasks(uint256)": "infinite"
					}
				},
				"methodIdentifiers": {
					"getTask()": "a31662d2",
					"setTask(string)": "69306b3a",
					"tasks(uint256)": "8d977672"
				}
			},
			"storageLayout": {
				"storage": [
					{
						"astId": 10,
						"contract": "contracts/Main.sol:TODOS",
						"label": "tasks",
						"offset": 0,
						"slot": "0",
						"type": "t_array(t_struct(task)6_storage)dyn_storage"
					},
					{
						"astId": 16,
						"contract": "contracts/Main.sol:TODOS",
						"label": "taskToAccount",
						"offset": 0,
						"slot": "1",
						"type": "t_mapping(t_address,t_array(t_struct(task)6_storage)dyn_storage)"
					}
				],
				"types": {
					"t_address": {
						"encoding": "inplace",
						"label": "address",
						"numberOfBytes": "20"
					},
					"t_array(t_struct(task)6_storage)dyn_storage": {
						"base": "t_struct(task)6_storage",
						"encoding": "dynamic_array",
						"label": "struct TODOS.task[]",
						"numberOfBytes": "32"
					},
					"t_bool": {
						"encoding": "inplace",
						"label": "bool",
						"numberOfBytes": "1"
					},
					"t_mapping(t_address,t_array(t_struct(task)6_storage)dyn_storage)": {
						"encoding": "mapping",
						"key": "t_address",
						"label": "mapping(address => struct TODOS.task[])",
						"numberOfBytes": "32",
						"value": "t_array(t_struct(task)6_storage)dyn_storage"
					},
					"t_string_storage": {
						"encoding": "bytes",
						"label": "string",
						"numberOfBytes": "32"
					},
					"t_struct(task)6_storage": {
						"encoding": "inplace",
						"label": "struct TODOS.task",
						"members": [
							{
								"astId": 3,
								"contract": "contracts/Main.sol:TODOS",
								"label": "name",
								"offset": 0,
								"slot": "0",
								"type": "t_string_storage"
							},
							{
								"astId": 5,
								"contract": "contracts/Main.sol:TODOS",
								"label": "isCompleted",
								"offset": 0,
								"slot": "1",
								"type": "t_bool"
							}
						],
						"numberOfBytes": "64"
					}
				}
			},
			"userdoc": {
				"kind": "user",
				"methods": {},
				"version": 1
			}
		}
	}
}